{
  "contractName": "Adoption",
  "abi": [
    {
      "constant": true,
      "inputs": [
        {
          "name": "",
          "type": "uint256"
        }
      ],
      "name": "adopters",
      "outputs": [
        {
          "name": "",
          "type": "address"
        }
      ],
      "payable": false,
      "stateMutability": "view",
      "type": "function"
    }
  ],
  "bytecode": "0x608060405234801561001057600080fd5b5061010e806100206000396000f300608060405260043610603f576000357c0100000000000000000000000000000000000000000000000000000000900463ffffffff16806343ae80d3146044575b600080fd5b348015604f57600080fd5b50606c6004803603810190808035906020019092919050505060ae565b604051808273ffffffffffffffffffffffffffffffffffffffff1673ffffffffffffffffffffffffffffffffffffffff16815260200191505060405180910390f35b60008160108110151560bc57fe5b016000915054906101000a900473ffffffffffffffffffffffffffffffffffffffff16815600a165627a7a723058208ae3ecd131ae48482c3b3bddc24b1a2f4fb98082852d0233353003d5df2bf63c0029",
  "source": "pragma solidity ^0.4.17;\n\ncontract Adoption {\naddress[16] public adopters;\n\n}",
  "sourcePath": "/Users/e/Documents/programming/blockchain/pet-shop-tutorial/contracts/Adoption.sol",
  "compiler": {
    "name": "solc",
    "version": "0.4.24+commit.e67f0147.Emscripten.clang"
  },
  "schemaVersion": "2.0.1",
  "updatedAt": "2018-06-29T13:17:48.469Z"
}